S014000052544F535F70726F6A6563742E7372656372
S11300000C943A000C9457000C9457000C9457002D
S11300100C9457000C9457000C9457000C94AC03A8
S11300200C9457000C9457000C9457000C945700F0
S11300300C9457000C9457000C9457000C945700E0
S11300400C9457000C9457000C9457000C945700D0
S11300500C945700FE00DE00E000E200E400E6003D
S1130060E800EA00EC00EE00F000F200F400F60014
S1130070F800FA0011241FBECFE5D8E0DEBFCDBFE3
S113008010E0A0E6B0E0E8E7F5E102C005900D92CB
S1130090AC38B107D9F726E0ACE8B0E001C01D9256
S11300A0AE3FB207E1F70E944F060C94BA0A0C94D3
S11300B000008FEF8ABB87BB84BB81BB089581118D
S11300C002C06ABB0895813011F467BB0895823081
S11300D011F464BB0895833009F461BB0895811160
S11300E002C06BBB0895813011F468BB089582305F
S11300F011F465BB0895833009F462BB089581113E
S113010009C089B390E002C0959587956A95E2F796
S113011081700895813049F486B390E002C09595CA
S113012087956A95E2F781700895823049F483B324
S113013090E002C0959587956A95E2F781700895DD
S1130140833049F480B390E002C0959587956A9511
S1130150E2F78170089580E00895CF93DF93EC0176
S11301600E94360820918C0030918D00C9018C0FBB
S11301709D1F8C3D45E0940758F42817390758F41F
S1130180E901C257DF4F90938D0080938C0005C026
S1130190C0E0D0E002C0C0E0D0E00E940A09CE0175
S11301A0DF91CF910895089590E0FC013197E031FB
S11301B0F10510F5E65DFF4F0C948A0A82E3089579
S11301C083E308958DE2089584E3089585E3089513
S11301D086E308958AE2089587E3089588E30895FD
S11301E089E308958FE2089583E4089580E30895F0
S11301F08DE308958BE208958FEF089581E30895C8
S1130200CF92DF92FF920F931F93CF93DF9300E07F
S113021010E06894CC24C4F8D12CF02EE601002E12
S113022002C0CC0FDD1F0A94E2F76C2F82E00E941B
S11302305F006C2F609582E00E946F00C0E06C2F1D
S113024082E00E947F00811108C0CC0FCC0F81E0B6
S11302508F0D8C0F0E94D40009C0CF5FC43079F792
S11302600F5F1F4F05301105C1F68FEFDF91CF915E
S11302701F910F91FF90DF90CF900895C29889EF5E
S113028090E00197F1F700C00000C29A8BED95E071
S11302900197F1F700C000000895CF93C82FC098CC
S11302A0C19888B38F7088BB88B39C2F907F892BAB
S11302B088BB0E943E0188B38F7088BB88B3C29507
S11302C0C07FC82BC8BB0E943E01CF9108958FEF19
S11302D087BB84E088BB83E30E944D0182E30E94D4
S11302E04D0188E20E944D018CE00E944D01089569
S11302F0CF93C82FC09AC19888B38F7088BB88B336
S11303009C2F907F892B88BB0E943E0188B38F70FD
S113031088BB88B3C295C07FC82BC8BB0E943E016E
S1130320CF910895813049F028F0823049F083302C
S113033051F00CC080E8860F0AC080EC860F07C01D
S113034080E8860F04C080E8860F01C080E80E9420
S11303504D01089581E00E944D010895CF93DF93EC
S1130360EC018881882331F021960E9478018991DB
S11303708111FBCFDF91CF910895FC010396928305
S113038081832FEF3FEF3483238396838583908784
S1130390878310820895FC01118610860895CF93F7
S11303A0DF93FC01DB0121813281E9018A819B8198
S11303B013969C938E9312978181928115969C93A8
S11303C08E9314978A819B81EC017D836C83E90170
S11303D07B836A83728361831996FC93EE931897E7
S11303E080818F5F8083DF91CF910895CF93DF93D6
S11303F0EB01488159814F3F2FEF520731F4DC0163
S11304001796ED91FC91189717C0FC013396DC0107
S113041015962D913C911697D9012D913C91421737
S1130420530750F00280F381E02DA281B3812D9116
S11304303C9142175307B0F7A281B381BB83AA83CF
S11304401596DC93CE931497FD83EC83D383C283F8
S113045099878887FC0120812F5F2083DF91CF91CA
S11304600895FC01A281B3818481958115969C93A2
S11304708E931497A481B5818281938113969C9362
S11304808E931297A085B18511968D919C911297A8
S1130490E817F90731F48481958112969C938E9321
S11304A01197118610868C9181508C93089531E1B7
S11304B0FC013083319722E220833197A3E3A083A8
S11304C0319760833197708331971082319760E858
S11304D0608331971082319762E06083319763E0E3
S11304E06083319764E06083319765E0608331977E
S11304F066E06083319767E06083319768E06083EA
S1130500319769E06083319760E16083319730838C
S1130510319732E13083319733E13083319734E1DD
S11305203083319735E13083319736E13083319729
S113053037E13083319738E13083319739E13083C3
S1130540319730E23083319731E230833197208321
S1130550319723E220833197408331975083319739
S113056026E22083319727E22083319728E22083F3
S1130570319729E22083319720E32083319721E3C7
S11305802083869708951BBC8CE78ABD8BE08EBDC3
S113059089B7806189BFA091F206B091F306CD912D
S11305A0CDBFDD91DEBFFF91EF91DF91CF91BF9180
S11305B0AF919F918F917F916F915F914F913F91F7
S11305C02F911F910F91FF90EF90DF90CF90BF90EC
S11305D0AF909F908F907F906F905F904F903F90DF
S11305E02F901F900F900FBE0F90089581E00895F3
S11305F00F920FB6F8940F921F9211242F923F92EC
S11306004F925F926F927F928F929F92AF92BF921E
S1130610CF92DF92EF92FF920F931F932F933F930A
S11306204F935F936F937F938F939F93AF93BF93F6
S1130630CF93DF93EF93FF93A091F206B091F3066B
S11306400DB60D920EB60D920E940A0AA091F20602
S1130650B091F306CD91CDBFDD91DEBFFF91EF9157
S1130660DF91CF91BF91AF919F918F917F916F91C6
S11306705F914F913F912F911F910F91FF90EF90B8
S1130680DF90CF90BF90AF909F908F907F906F90AE
S11306905F904F903F902F901F900F900FBE0F9040
S11306A008950F920FB6F8940F921F9211242F926F
S11306B03F924F925F926F927F928F929F92AF92EE
S11306C0BF92CF92DF92EF92FF920F931F932F93DB
S11306D03F934F935F936F937F938F939F93AF93C6
S11306E0BF93CF93DF93EF93FF93A091F206B09162
S11306F0F3060DB60D920EB60D920E9446080E94A6
S11307000A0AA091F206B091F306CD91CDBFDD9116
S1130710DEBFFF91EF91DF91CF91BF91AF919F9198
S11307208F917F916F915F914F913F912F911F9185
S11307300F91FF90EF90DF90CF90BF90AF909F907C
S11307408F907F906F905F904F903F902F901F906D
S11307500F900FBE0F9008950E945103189585B510
S1130760886085BD85B5806485BD85B58F7E85BD72
S113077085B5806285BD85B58E7F85BD85B5826072
S113078085BD85B5846085BD0895853650F42FEF09
S1130790829FC001112464E670E00E94760A63BD62
S11307A0089513BC089585B58E7F85BD85B58D7F6D
S11307B085BD85B58B7F85BD0895CF93DF9300D02C
S11307C0CDB7DEB70E943C089A83898362E370E068
S11307D0CE0101960E949009809187068B30D0F457
S11307E080918606811116C00E94AA016091870635
S11307F080E00E94920184E690E00E94AE01809124
S113080087068F5F809387068B3000F381E08093A7
S11308108606DCCF809186068130C1F60E94AA014B
S11308206091870680E00E94920184E690E00E9435
S1130830AE01809187068150809387068111C6CFCF
S113084010928606809185068F5F8093850683309B
S113085009F0BCCF0E94AA01A12CB12CC12CD12C2F
S11308600F2EF8EFEF2EF6E0FF2EF02D01E020E042
S113087030E045E550E060E070E089E594E00E94F6
S1130880B4060F2EF4EFEF2EF6E0FF2EF02D04E069
S113089020E030E045E550E060E070E08EEA94E06E
S11308A00E94B4068091FC069091FD060E94C20746
S11308B08DCFCF93DF9300D0CDB7DEB70E943C0835
S11308C09A8389836AEF70E0CE0101960E949009B1
S11308D0809184068832D9F4A12CB12CC12CD12C5E
S11308E00F2EFAEFEF2EF6E0FF2EF02D02E020E0BF
S11308F030E045E550E060E070E083EE94E00E9473
S1130900B4068091F8069091F9060E94C20780917E
S113091083068230A8F460E080E00E9492018CE6B5
S113092090E00E94AE0161E081E00E9492018DE7B7
S113093090E00E94AE01809183068F5F80938306CE
S113094080918306823021F40E94AA0110928306CA
S1130950809184068F5F80938406B4CFCF93DF9316
S113096000D0CDB7DEB70E943C089A8389836FE03C
S113097070E0CE0101960E9490090E9400018F3F11
S1130980B1F3A12CB12CC12CD12C0F2EF6EFEF2EEC
S1130990F6E0FF2EF02D03E020E030E045E550E0E6
S11309A060E070E08BE795E00E94B4068091F80661
S11309B09091F9060E94C2078091F4069091F50681
S11309C00E94C207D4CFCF93DF9300D0CDB7DEB758
S11309D00E94AF030E943C089A8389830F2EF3E0A0
S11309E0EF2EF12CF02D0F2EF4E6BF2EF02D01E0AA
S11309F010E06894CC24C1F8D12C6AEF70E0CE01E9
S1130A0001960E949009809181069091820681301E
S1130A10910549F11CF4892B41F0EFCF8230910507
S1130A20B1F1039709F454C0E8CF0E94AF03809159
S1130A307F06909180068536910564F40E94C50373
S1130A4080917F06909180060A9690938006809309
S1130A507F06D3CF1092800610927F0610938206F1
S1130A6000938106CACF0E94D30380917D069091A2
S1130A707E068A30910529F4D0928206C0928106BE
S1130A80BCCF019690937E0680937D06B6CF0E94DC
S1130A90AF0380917F0690918006853691057CF4A2
S1130AA02B2D281B822F0E94C50380917F069091D5
S1130AB080060A969093800680937F069ECF1092BC
S1130AC0800610927F06F0928206E092810695CF0E
S1130AD00E94D30380917D0690917E06009729F4AD
S1130AE0109282061092810688CF019790937E0619
S1130AF080937D0682CFCF93DF9300D0CDB7DEB74E
S1130B000E943C089A8389830F2EFCE66F2EF6E040
S1130B107F2EF02D0F2EFDE09F2EF02D0F2EFFE0E7
S1130B20AF2EF02DDD24D3940F2EFEE0BF2EF02D3A
S1130B300F2EFCE0CF2EF02DEE24EA946FE070E04F
S1130B40CE0101960E9490090E94000180936100E9
S1130B508F3F19F4E0926000F1CF90916000891703
S1130B6069F38093600090ED980F9A3078F40E94B6
S1130B70780180917C06E82FF0E0E459F94F9091D8
S1130B80610090838F5F80937C0631C08D3379F44C
S1130B9080916B06882359F0D0926A0610927C06E5
S1130BA00E94AA01809161000E94780120C0809176
S1130BB07C0680936B060E94AA01809161008D32AD
S1130BC079F028F48A3241F08B3241F00EC08F3232
S1130BD049F0833449F009C01B2D07C01C2D05C002
S1130BE0192D03C01A2D01C01D2D0E94780180917A
S1130BF06A06882309F4A2CF0E94AA011D3041F19C
S1130C0018F41C3031F044C01E3081F01F3069F1FB
S1130C103FC0E0916B06F0E0E459F94FD3018C91A9
S1130C2080539081890F0E94780132C0E0916B0655
S1130C30F0E0E459F94F808190ED980FF301808141
S1130C408053899F802D1124805D0E94780120C0EB
S1130C50D3018C91805DE0916B06F0E0E459F94F8B
S1130C609081891B0E94780113C0F301808190E078
S1130C70C097E0916B06F0E0E459F94F608170E0B1
S1130C80605371090E94760A80E3860F0E947801FE
S1130C9010926A0610926B0610927C064FCFAF92A8
S1130CA0BF92CF92DF92EF92FF920F930E9459006E
S1130CB00E9467010E94AA01A12CB12CC12CD12C45
S1130CC00F2EFCEFEF2EF6E0FF2EF02D01E020E0DA
S1130CD030E045E550E060E070E08DED93E00E9487
S1130CE0B4060E940B0880E090E00F91FF90EF9013
S1130CF0DF90CF90BF90AF900895CF93DF93EC0136
S1130D00E091F206F091F30693838283809190063A
S1130D1090919106C817D90768F46091F206709112
S1130D20F3068091AF069091B0066E5F7F4F0E94EC
S1130D30F60117C06091F2067091F3068091B10636
S1130D409091B2066E5F7F4F0E94F601809162001F
S1130D5090916300C817D90720F4D0936300C0931F
S1130D606200DF91CF9108954F925F926F927F92CC
S1130D708F929F92AF92BF92CF92DF92EF92FF92A7
S1130D800F931F93CF93DF935C014B01EA01290179
S1130D9081E290E00E94AD003C01009709F4E0C0BC
S1130DA0C114D10409F0D7C0CE010E94AD00F301F3
S1130DB0908F878B009721F4C3010E94D300D0C089
S1130DC0AE0165EA70E00E94A40A2197F3018789C5
S1130DD0908DC80FD91F48E050E0B401C301499673
S1130DE00E94AB0AF30110A2102F053008F014E0A2
S1130DF0F301168B6301F2E0CF0ED11CC6010E94F1
S1130E00CB01C3010C960E94CB01F301718660866D
S1130E1085E090E0811B910995878487738A628AB3
S1130E20A201B501CE010E945702F3019183808390
S1130E30E114F10419F0F701718260820FB6F8949D
S1130E400F92809192068F5F809392068091F206B2
S1130E509091F306892BC9F57092F3066092F2061D
S1130E6080919206813009F03FC0C5ECD6E00F2E88
S1130E70F2EFEF2EF6E0FF2EF02DCE010E94BD0121
S1130E802996CE15DF05C9F78CEB96E00E94BD01CB
S1130E9083EB96E00E94BD0186EA96E00E94BD01C4
S1130EA08DE996E00E94BD0183E996E00E94BD01B0
S1130EB08CEB96E09093B2068093B10683EB96E0B8
S1130EC09093B0068093AF060FC080918D06811178
S1130ED00BC0E091F206F091F3068689081720F022
S1130EE07092F3066092F206F301868990918F0660
S1130EF0981710F480938F06909188069F5F9093C3
S1130F00880690918E06981710F480938E0690E0D0
S1130F109C01220F331F220F331F220F331F820F16
S1130F20931FB6018B53994F0E94CF010F900FBEB0
S1130F3080918D06882359F0E091F206F091F30632
S1130F408689801730F40E94F80281E00AC081E0AB
S1130F5008C081E006C0FC01D08EC78AC60130CF2C
S1130F608FEFDF91CF911F910F91FF90EF90DF9062
S1130F70CF90BF90AF909F908F907F906F905F9035
S1130F804F900895EF92FF920F931F93CF93DF93A7
S1130F90EC010FB6F8940F928091F2069091F3064B
S1130FA08C179D0711F0209739F4C091F206D09167
S1130FB0F306E12CF12C01C07E018E010E5F1F4F60
S1130FC0C8010E9431028C899D89892B21F0CE01B0
S1130FD00C960E943102B8018DE996E00E94CF017F
S1130FE080919C068F5F80939C06809188068F5F1A
S1130FF0809388060F900FBE80918D06882321F080
S1131000EF2811F40E94F802DF91CF911F910F9104
S1131010FF90EF900895AF92BF92CF92DF92EF923C
S1131020FF920F93A12CB12CC12CD12CE12CF12CCB
S113103000E020E030E045E550E066E870E08AED4D
S113104099E00E94B406813049F4F89480938D06A7
S113105010929106109290060E94C3020F91FF9085
S1131060EF90DF90CF90BF90AF90089580918C0661
S11310708F5F80938C0608950FB6F8940F92809139
S11310809006909191060F900FBE08950F931F93B1
S1131090CF93DF9380918C068111B2C0809190062A
S11310A09091910601969093910680939006809179
S11310B0900690919106892B99F58091B1069091B3
S11310C0B2062091AF063091B0063093B206209359
S11310D0B1069093B0068093AF06809189068F5F26
S11310E080938906E091B106F091B2068081811166
S11310F007C08FEF9FEF909363008093620010C04E
S1131100E091B106F091B2060580F681E02D0680EB
S1131110F781E02D82819381909363008093620034
S11311202091900630919106809162009091630025
S11311302817390708F469C0E091B106F091B206A6
S11311408081882399F0E091B106F091B206058080
S1131150F681E02DC681D7818A819B8120919006FA
S11311603091910628173907F8F419C08FEF9FEFD3
S1131170909363008093620048C0E091B106F091BF
S1131180B2060580F681E02DC681D7818A819B81D4
S113119020919006309191062817390728F49093EE
S11311A063008093620031C08E010E5F1F4FC8013F
S11311B00E9431028C899D89892B21F0CE010C96E5
S11311C00E9431028E8990918E06981710F48093B4
S11311D08E0690E09C01220F331F220F331F220F33
S11311E0331F820F931FB8018B53994F0E94CF0175
S11311F0E091B106F091B20680818111BECFB6CFE5
S113120080918B068F5F80938B06DF91CF911F9126
S11312100F910895CF92DF92EF92FF920F931F9355
S1131220CF93DF930FB6F8940F9280918C06815080
S113123080938C0680918C06811164C08091920603
S1131240811132C062C0D7011596ED91FC911697B9
S1131250C681D781CE010C960E9431028E010E5FA9
S11312601F4FC8010E9431028E8990918E069817F3
S113127010F480938E0690E09C01220F331F220FFE
S1131280331F220F331F820F931FB8018B53994FC3
S11312900E94CF01E091F206F091F3069E898689BF
S11312A0981758F0DC2C09C0D12C0F2EF6EAEF2E3B
S11312B0F6E0FF2EF02DCC24C394F7018081811138
S11312C0C2CF80918B06882381F080918B0688237E
S11312D099F00E94460880918B06815080938B067A
S11312E080918B068111F5CF07C0F1E0DF1621F064
S11312F080918A06813041F410928A060E94F80295
S113130081E003C080E001C080E00F900FBEDF9158
S1131310CF911F910F91FF90EF90DF90CF900895A0
S11313200F931F93CF93DF938C01EB010E94360838
S1131330F80180819181C80FD91F209190063091C6
S113134091062817390768F4C817D90750F5809112
S1131350900690919106D183C0838C179D07B0F4B9
S11313600BC0C817D907C8F08091900690919106D8
S11313708C179D0790F015C08091F2069091F306AA
S113138002960E943102CE010E947D060E940A0943
S113139081110BC00E94F80208C0F801D183C083F8
S11313A0EBCFF801D183C083F1CFDF91CF911F91AF
S11313B00F9108950DE916E080919C068823E1F3CE
S11313C00E943608D801CC910E940A09CC23A1F3CB
S11313D00FB6F8940F92D8011596ED91FC911697DB
S11313E0C681D781CE0102960E9431028091920675
S11313F081508093920680919C06815080939C0634
S11314000F900FBE8F89988D0E94D300CE010E9449
S1131410D300D2CF80918C06811113C080918E06A7
S113142090E0FC01EE0FFF1FEE0FFF1FEE0FFF1FFA
S11314308E0F9F1FFC01EB53F94F8081882329F005
S11314401BC081E080938A06089580918E068150A6
S113145080938E0680918E0690E0FC01EE0FFF1FB4
S1131460EE0FFF1FEE0FFF1F8E0F9F1FFC01EB53AC
S1131470F94F8081882349F380918E0690E09C0186
S1131480220F331F220F331F220F331F280F391F40
S1131490D901AB53B94F1196ED91FC91129702808B
S11314A0F381E02D1296FC93EE9311972853394F54
S11314B0E217F30729F422813381FD01328321836A
S11314C0FC01EE0FFF1FEE0FFF1FEE0FFF1F8E0F2D
S11314D09F1FFC01EB53F94F0180F281E02D8681BF
S11314E097819093F3068093F206089597FB072E55
S11314F016F4009407D077FD09D00E94900A07FCE7
S113150005D03EF4909581959F4F0895709561950F
S11315107F4F0895EE0FFF1F0590F491E02D09947D
S1131520AA1BBB1B51E107C0AA1FBB1FA617B70705
S113153010F0A61BB70B881F991F5A95A9F7809521
S11315409095BC01CD010895DC0101C06D9341501B
S11315505040E0F70895FB01DC014150504048F051
S113156001900D920020C9F701C01D9241505040D6
S10B1570E0F70895F894FFCFA1
S1131578FFFFFFFF77656C636F6D650050726573DD
S11315887320616E79204B657920746F00436F6E08
S10F159874696E75650049444C45000000
S9030000FC
